:020000040800F2
:1000000000000A2055A000088DA30008EB8A000814
:10001000E58A0008B1A50008B3A5000800000000AB
:100020000000000000000000000000004181000806
:10003000B5A5000800000000B7A50008B9A5000894
:10004000A5A00008A5A00008A5A00008A5A000087C
:10005000BDA50008A5A00008A5A00008A5A000084F
:10006000A5A00008A5A00008A5A00008A5A000085C
:10007000A5A00008A5A00008A5A00008A5A000084C
:10008000A5A00008A5A00008A5A00008A5A000083C
:10009000A5A00008A5A00008A5A00008A5A000082C
:1000A000A5A00008A5A00008A5A00008A5A000081C
:1000B000A5A00008A5A00008A5A00008A5A000080C
:1000C000A5A00008A5A00008A5A00008A5A00008FC
:1000D000A5A00008A5A00008A5A00008A5A00008EC
:1000E000A5A00008A5A00008A5A00008A5A00008DC
:1000F000A5A00008A5A00008A5A000080000000019
:10010000A5A00008A5A00008A5A00008A5A00008BB
:10011000A5A00008A5A00008A5A00008A5A00008AB
:10012000A5A00008A5A00008A5A00008A5A000089B
:10013000A5A00008A5A00008A5A00008A5A000088B
:10014000A5A00008A5A00008A5A00008B92D0108D9
:10015000A5A00008A5A00008A5A00008A5A000086B
:10016000A5A00008A5A00008A5A00008A5A000085B
:10017000A5A00008A5A00008A5A000080000000098
:10018000A5A00008A5A00008A5A00008A5A000083B
:10019000A5A00008A5A000080000000000000000C5
:1001A0000000000000000000A5A00008A5A00008B5
:1001B000A5A00008A5A00008A5A000080000000058
:1001C000000000000000000000000000000000002F
:1001D000000000000000000000000000000000001F
:1001E000000000000000000000000000000000000F
:1001F00000000000000000000000000000000000FF
:10020000000000000EB433B5059C05467246114B44
:100210009A4205D2002002B0BDE8304003B07047DA
:1002200072460D4B9A42F5D80121204603F0F6F8AC
:100230000028EFD00121204603F014F90128E9D06D
:10024000002306AA237021462846019201F06CFF84
:10025000E1E700BF00750008FF8000080000000013
:10026000000000000000000000000000000000008E
:10027000000000000000000000000000000000007E
:10028000000000000000000000000000000000006E
:10029000000000000000000000000000000000005E
:1002A000000000000000000000000000000000004E
:1002B000000000000000000000000000000000003E
:1002C000000000000000000000000000000000002E
:1002D000000000000000000000000000000000001E
:1002E000000000000000000000000000000000000E
:1002F00000000000000000000000000000000000FE
:10030000AAED1C95DE0E17A1F3E32D7AE8CC1E1E94
:1003100003D629E57AA54E356C82D921CDF0A55EAC
:1003200000000000000000000000000000000000CD
:1003300000000000000000000000000000000000BD
:1003400000000000000000000000000000000000AD
:10035000000000000000000000000000000000009D
:10036000000000000000000000000000000000008D
:10037000000000000000000000000000000000007D
:10038000FFFFFFFFFFFFFFFFFFFFFFFFFFFFFFFF7D
:10039000FFFFFFFFFFFFFFFFFFFFFFFFFFFFFFFF6D
:1003A000FFFFFFFFFFFFFFFFFFFFFFFFFFFFFFFF5D
:1003B000FFFFFFFFFFFFFFFFFFFFFFFFFFFFFFFF4D
:1003C000FFFFFFFFFFFFFFFFFFFFFFFFFFFFFFFF3D
:1003D000FFFFFFFFFFFFFFFFFFFFFFFFFFFFFFFF2D
:1003E000FFFFFFFFFFFFFFFFFFFFFFFFFFFFFFFF1D
:1003F000FFFFFFFFFFFFFFFFFFFFFFFFFFFFFADE33
:100400003EB443F24651C4F62B5148F68552CAF623
:10041000306244F6B363C6F21D2343F6DD24C7F60B
:10042000860480E81E003EBC70473EB444F2690179
:10043000C1F2370149F23222C9F6910242F6E6339F
:10044000CDF6D8234FF20154CEF6BA2480E81E0030
:1004500000F110004BF63951CBF22A6147F26842A5
:10046000CDF2E40240F23033C0F219734BF29C74C7
:10047000C0F2050480E81E0000F1100041F605619D
:10048000C5F2D9514AF26352CDF6A2324CF2BF13F3
:10049000CBF276234EF2B164C9F2011480E81E005B
:1004A00000F110004AF66121C4F2B1214AF67C3213
:1004B000CFF2A76248F67E33C2F23B2349F6892485
:1004C000C8F2063480E81E003EBC70470000000001
:1004D000000000000000000000000000000000001C
:1004E000000000000000000000000000000000000C
:1004F00000000000000000000000000000000000FC
:1005000008B500F0DBF8012008BD00000000000085
:1005100000000000000000000000000000000000DB
:1005200000000000000000000000000000000000CB
:1005300000000000000000000000000000000000BB
:1005400000000000000000000000000000000000AB
:10055000000000000000000000000000000000009B
:10056000000000000000000000000000000000008B
:10057000000000000000000000000000000000007B
:10058000000000000000000000000000000000006B
:10059000000000000000000000000000000000005B
:1005A000000000000000000000000000000000004B
:1005B000000000000000000000000000000000003B
:1005C000000000000000000000000000000000002B
:1005D000000000000000000000000000000000001B
:1005E000000000000000000000000000000000000B
:1005F00000000000000000000000000000000000FB
:1006000010B5054C237833B9044B13B10448AFF34C
:1006100000800123237010BD200400200000000092
:100620003C67000808B5034B1BB103490348AFF30F
:10063000008008BD00000000240400203C67000882
:100640000D4B0E4A0E489B1A82B048BF03339B10D5
:100650000093002301930199009B994201D302B0BA
:1006600070470199019B50F8211042F82310019B1B
:1006700001330193EFE700BF2004002000040020B5
:10068000A07300080B4B0C4A9B1A82B048BF03337F
:100690009B100021009301910198009B984201D387
:1006A00002B07047019B42F82310019B0133019374
:1006B000F2E700BFB01400202004002008B5FFF7C7
:1006C000E1FFBDE80840FFF7BBBF0FB404B07047BF
:1006D00000487047186800087047000030B50F4C9C
:1006E0000023A142C0E90033C0E9023312D20C4B0F
:1006F00099420CD8C0E900125D1C1144A94205D9E9
:10070000DB431944521A84604260C16030BDDB4350
:1007100023441944C0E90212F8E700BF000000902A
:10072000FFFF1F081FB504466846FFF7D7FF019A71
:100730001AB10099204605F0D7FF039A62B10299D9
:10074000074B99420AD3C91A204602F0A0FEB0FA1C
:1007500080F0400904B010BD0120FBE70020F9E75C
:10076000000000902DE9F047884614461146234AC0
:100770001F461379012B8446404616D1DFF898A016
:10078000A24517D81E4D1F4B2B441F4D5B1BA34288
:1007900010D9A4EB0A05166806F50076B54217D302
:1007A0001A49A1EB0A01891B21443A46BDE8F047EA
:1007B000FFF7B8BF164DA54204D8164BA34201D986
:1007C000651BE8E706238CF800300020BDE8F087C1
:1007D000EB19B342E9D9A6EB05094A462146404642
:1007E000FFF7A0FF0128F1D10849A1EB0A0A544400
:1007F000BB1B611B08EB09005F19D6E74004002012
:1008000001002008FFFF3F9000000090000020083A
:100810000000409000B09E900050010808B501F023
:1008200039F868B9074B9A6942F070429A614CF204
:10083000FA321A6101F040F8B0FA80F0400908BDC0
:100840000020FCE7002002402DE9F04F8DB0044667
:10085000019208A81A46FFF741FFDDF82480B8F19D
:10086000000F5AD0002C5AD0019B002B59D00023E6
:100870002370089FFFF7D2FF0128054603D101F03E
:1008800009F880B125700B9A002A00F0AB80012D89
:1008900040F0A8800A99DFF858B100235945237029
:1008A00041D200259EE0DFF84CA106464FF00A0B2E
:1008B000019B03EB0609424653464946384600F081
:1008C0003DFD031E01DB5A0705D0032323700025DD
:1008D00000F0F2FFD7E73BB11E44A8EB03081F442A
:1008E000B8F1000FE4D1F3E72370D9E900233946CA
:1008F00001F018F80028E8D1D9E9002339687868B0
:10090000984208BF914201D00423DFE70837083638
:10091000A8F1080884F800B0E2E70125B3E725460E
:10092000B1E7019DAFE7A1EB0B08531E43441B0C3D
:100930000133B3F5806F0293B3D84FEA1849029B95
:100940004B4508D80198414602F0A3FD002847D046
:1009500003232370A5E709F01F030393234B039997
:100960004FEA591A03EB8A039B68CB4013F001034B
:1009700033D14FEA09461BEB0606049291D24FF0A1
:100980000A03237007A802F088FD049AC8B9079BE0
:1009900003F57F47FF37B7FBF3F70123A6EB0B0007
:1009A000CDE9042302F077FDDDE90423022108B13B
:1009B000217000230798013F0644EFD1002B3FF43C
:1009C00070AF0A4B039903EB8A0A012303FA01F182
:1009D000DAF808300B43CAF8083009F10109AEE72C
:1009E0000A23237028460DB0BDE8F08F4004002094
:1009F00000000090CB0600082DE9F14F8046264804
:100A00001F4690F88C30012B0C46924617D1DFF828
:100A1000A4B08B451AD8214D214B2B44214D5B1B93
:100A20008B4213D9A1EB0B05D0F8886006F5007650
:100A3000B5421AD31C49A1EB0B01891B21443B464B
:100A4000404601B0BDE8F04FFFF7FEBE174DA5428E
:100A500004D8174BA34201D9651BE5E7072388F8A3
:100A60000030002001B0BDE8F08FEB19B342E6D9A9
:100A7000A6EB05094B46524621464046FFF7E4FEE9
:100A80000128EFD10849A1EB0B0B5C44BF1B611B94
:100A90000AEB09022F44D2E740040020010020089D
:100AA000FFFF3F90000000900000200800004090F1
:100AB00000B09E9000500108C3B2532B05D1000A2C
:100AC000A0F155035842584170470020704700007C
:100AD000C1B10D4B984204D80C4A4B1E03449342BB
:100AE0000ED20B4A0B4B13440B4A9B1A984209D85F
:100AF00001390844094981428CBF00200120704718
:100B00000120704700207047FFAF9E90000040908A
:100B100000002008FFFF3F900000009000500108F7
:100B200067B5B3F5807F05460E461046194601931A
:100B300004D909232B70002003B060BD064A01AB25
:100B400000F088F90128044AF3D1019B3146284678
:100B5000FFF752FFF0E700BFE0040020F7B5B3F560
:100B6000807F06460D461C46019304D90823337046
:100B7000002003B0F0BD074F3946FFF7F3FD012811
:100B8000F7D101AB2A462146384600F0B5F90128D5
:100B9000ECD1EEE7F805002008B5024600880749C9
:100BA000FFF78AFF012806D1D36B0B60002B18BF1B
:100BB00003460B7108BD00200871FBE740040020CC
:100BC000024B00221A601A71012070474004002075
:100BD00008B5024600880949FFF76EFF012808D1D1
:100BE000D36BC1F88830002B18BF034681F88C30D6
:100BF00008BD002081F88C00FAE700BF4004002007
:100C0000034B0022C3F8882083F88C200120704712
:100C10004004002008B502460088FFF74DFF012878
:100C200009D1104600F04CF9431E58425841034B7D
:100C300083F8BC0208BD0020F9E700BF4004002093
:100C4000024B002283F8BC220120704740040020A0
:100C500008B502460088FFF72FFF012809D110468A
:100C600000F0DEF8431E58425841034B83F8A401BC
:100C700008BD0020F9E700BF4004002008B502F0DD
:100C800004FC012008BD000070B58AB00446039141
:100C9000FFF71EFF002836D0039A214606A8FFF76B
:100CA0001DFD079DADB90124099B7BB1012C0DD120
:100CB00005A802F0F2FB20BB059CA4F580335C4242
:100CC0005C4112488022002105F01CFD20460AB03C
:100CD00070BD069EFFF7A2FD01280446E4D100F096
:100CE000D9FD0028DFD10A4B00930A4A0A4B294656
:100CF000304600F0CDFAB0FA80F4640900F0DCFD73
:100D0000D2E70024DDE70446E0E700BF4804002006
:100D1000D1060008CB060008D906000830B51346F6
:100D200085B00D460A22194604468DF80F2001931E
:100D3000FFF7CEFE58B1084A019B92F8A421012A80
:100D400021462A460DF10F0003D1FFF7E9FE05B059
:100D500030BDFFF751FEFAE74004002007B5134607
:100D60000A228DF80720084A92F8BC22012A0A4676
:100D700001460DF1070004D1FFF7F0FE03B05DF866
:100D800004FBFFF7EFFCF9E74004002030B5044610
:100D9000A1B008B30088FFF78FFE01281CD1124BC9
:100DA000124D002283F8A4212946FFF729FF802253
:100DB0006846FFF7D3FF01284FF080020ED1BDF83F
:100DC0000000FFF779FE012808D16946204605F0AA
:100DD0007BFCB0FA80F0400921B030BD21462846A6
:100DE000FFF79CFFF8E700BF400400208000409020
:100DF00010B50A48FFF704FB084A002312F8014B1C
:100E00004CB90133102BF9D110220021034805F011
:100E100079FC204610BD0124F6E700BF0007002042
:100E200038B5044698B10A4D05F11000FFF7E8FA0D
:100E3000002385F824301023221DE91805F1200035
:100E40006B642B6303F0E6F8B0FA80F0400938BD1C
:100E50000007002007B558B16AB173B1009313467B
:100E60000A460146064803F0D8F8B0FA80F0400977
:100E700003B05DF804FB1046FAE71846F8E700BF38
:100E80002007002010B50A4600B139B90A481022DF
:100E9000002105F037FC0024204610BD014607481C
:100EA00003F088F91022B0FA80F4002102486409A6
:100EB00005F028FCF0E700BF100700202007002005
:100EC00038B50446A0B10B4D2846FFF799FA002328
:100ED00085F83C31221D1023294605F59C70C5F884
:100EE0005C31C5F8483103F071F9B0FA80F040097F
:100EF00038BD00BF0007002007B579B158B17AB1FD
:100F000083B1009313460A460146074803F061F98E
:100F1000B0FA80F0400903B05DF804FB0120FAE765
:100F20001046F8E71846F6E73808002010B50A46DC
:100F300000B139B90A481022002105F0E3FB002472
:100F4000204610BD0146074803F055FA1022B0FABA
:100F500080F400210248640905F0D4FBF0E700BFEB
:100F60000007002038080020074808B52023C0F8F3
:100F70005832002380F8543200F5147003F0CEFA92
:100F8000B0FA80F0400908BD000700200A4608B505
:100F90000146034803F085FAB0FA80F0400908BD25
:100FA000500900200A4608B50146034803F043FBF8
:100FB000B0FA80F0400908BD500900202DE9F04149
:100FC000AEB00026CDE9026604960446002800F083
:100FD0008F804948FFF729FA8DF8486011AE202527
:100FE0003046139503F09AFA58B94022214630460C
:100FF00003F057FA28B904AA09A9304603F01BFBED
:1010000008B100246FE04FF4006306933B4BDFF818
:10101000F080119303F12002139203F14002159224
:1010200005AF03F160021792394603F180023046A2
:10103000A033CDF8148019921B931295149518952E
:1010400016951A951C9504F096FB0028D9D13146C7
:101050003A4603A804F0B2FC01460028D1D12B4641
:10106000A8F14002039804F031FDA8F1200201210B
:1010700003982B4604F02AFD03983A46314605F0C2
:10108000FBF90028BDD131463A4602A805F010F818
:1010900001460028B5D104F140022B46029805F024
:1010A00055F804F160022B460121029805F04EF834
:1010B000039B029A04990793009707AB09A8089627
:1010C00005F05BF840F2EB34031B5C42394602A8A2
:1010D0005C4105F024F8394603A804F0D8FC3946F1
:1010E000304604F02DFC04484022002105F00AFBA4
:1010F00020462EB0BDE8F081C409002058670008E2
:10110000040A00200F4BD3F8E02510B593B24FF638
:10111000FF74A34214BFC2F3CC044FF48074844222
:1011200086BF00F5004000030020022909D14FF6D8
:10113000FF718B4216BF044B4FF4801303EA422326
:10114000184410BD0070FF1F00FEFF012DE9F04F95
:101150008BB01646002204460D4605921F464BB141
:101160004B1E022E0344024608BF0221214818BF2D
:101170000121B8470023CDE90636DFF87CA0DFF86F
:101180007CB0022D2B4605A928BF022306A8CDE975
:101190000843ED1A1C4400F085FC149BB0F10008D4
:1011A00018BF4FF001088146C8F1000803B1984705
:1011B000A7B1159BE3B108983146FFF7A3FF159B34
:1011C00098470346314608980393FFF79BFF039B1C
:1011D0000999CDF8008002465046B84725B1B9F1CB
:1011E000000FCED04FF0FF3840460BB0BDE8F08F77
:1011F0005B46E7E71A68000837680008606800087F
:10120000134B10B51C68134BD3F8E025E4054FF6DB
:10121000FF7391B20DD499421DBF0F4B03EA4223D5
:1012200003F100634FF0016398422CBF02200120BC
:1012300010BD99421DBF084B03EA422303F100632E
:101240004FF00163834294BF01200220F0E700BF0A
:10125000000001400070FF1F00FEFF010A4BD3F8A1
:10126000E0254FF6FF7391B299421DBF074B03EA89
:10127000422303F100634FF0016383428CBF00F10E
:101280007840C01A000B70470070FF1F00FEFF017E
:101290002DE9F74F0F46044691469A46FFF7DEFFC9
:1012A00080462046FFF7ACFF7D1E254406462846B3
:1012B000FFF7A6FF8642834627D02846FFF7CEFFDA
:1012C0001C4BD3F8E0354FF6FF719DB28D421CBF29
:1012D000194D05EA43250C9B5A46CDE900A300F1C0
:1012E00001014B464FF0000014BF05F100654FF0BF
:1012F0000165FFF72BFF8346681E2F1BFFF780FF5A
:10130000BBF1000F11D186420FD1601E3844FFF7A8
:10131000A5FF0C9BC8F10101CDE900A301444B4698
:1013200032464046FFF712FF8346584603B0BDE8F9
:10133000F08F00BF0070FF1F00FEFF01002070470C
:1013400010B596B00023042240F2FA51CDE90233E1
:10135000CDE90412089310220D93159308230692E9
:101360004FF480604FF4405207934FF400634FF006
:101370008064CDE909020B9302224FF00063CDE9AE
:101380001042129306224FF000530E4C1392149306
:10139000012002F08FF841F2883202A9204600F0C5
:1013A000F4FC68B941F2883201A9204600F075FDCD
:1013B00030B99DF8040010F00100E9D116B010BD5D
:1013C0000120FBE70412002010B596B0002340F284
:1013D000F9620424CDE90233CDE90424CDE91333C5
:1013E000102209930D9310931593082306921E481B
:1013F000079341F288320DEB030100F0C6FC80BB7D
:1014000040F2FA5304934FF480624FF44053CDE915
:1014100009234FF080610223CDE910134FF40063DC
:101420000B934FF0006312934FF00053CDE9134339
:101430000D4C0890012002F03DF841F2883202A9DB
:10144000204600F0A2FC60B941F2883201A9204692
:1014500000F023FD28B99DF804309B07EAD516B0AB
:1014600010BD0120FBE700BF0412002008B50648AC
:1014700000F065FD054AD2F8003123F04053C2F870
:101480000031002008BD00BF04120020001000A0A1
:1014900008B5064B064A1A6041F28832DA6408221F
:1014A0005A64FFF7E3FF002008BD00BF04120020CC
:1014B000001000A010B594B00023CDE900330B93C9
:1014C00013934EF6116306914FF4806E4FF4405122
:1014D00002930823CDE907E105934FF080614FF4B3
:1014E0000063CDE90E120446062210204FF0040CD2
:1014F00009934FF00063CDE903C0119210930B489C
:101500004FF0005341F288326946129300F03DFCDF
:1015100050B9064841F28832214600F0BEFC00383E
:1015200018BF012014B010BD0120FBE704120020F9
:101530002DE9F041CDB294B0C5F5807500239542F8
:1015400001EB0206CDE900330C4628BF154641F2F7
:10155000ED2104220B93119313930823CDE902127A
:10156000059310224FF4006304924FF4806C4FF403
:10157000405209934FF00063CDE907C210934FF03A
:1015800080624FF00053DFF854800E9207461293AA
:1015900006940F95FFF718FFF0B9104841F2883212
:1015A000694600F0F2FBB8B941F28832394640464C
:1015B00000F033FC80B9FFF7C3FE68B92C4404F592
:1015C0008073B3422F448CBF351B4FF48075A64205
:1015D000DED814B0BDE8F0810120FAE70412002043
:1015E00000B595B0002304224DF62341CDE9003328
:1015F000CDE90212CDE9113310220B930E93139310
:101600000823049206904FF440524FF480600593F3
:101610004FF40063CDE907020993FFF7D5FE18B137
:10162000012015B05DF804FB064841F28832694696
:1016300000F0ABFB0028F3D1FFF782FE003818BFA3
:101640000120EEE7041200204FF080624FF4803357
:10165000C0E900234FF480614FF48073C0E90213A6
:101660004FF48023036100207047F0B522F003059A
:1016700006680C4697080D44A54208D112F00302F3
:101680001ED0012A14D111F82730337018E0637886
:1016900094F800C01B0443EA0C6394F803C043EAC7
:1016A0000C0394F802C043EA0C2333600434E3E7EC
:1016B0006B78022A11F8272043EA0223338002D1F3
:1016C00003681868F0BDAB78DFE70068F0B5002369
:1016D00055088E1C9D4206D1D30744BF31F82530F2
:1016E00003800068F0BD31F8237036F8234044EAE7
:1016F000074404600133EDE77047000010B504466D
:1017000008B9012010BD437F03F0FF0213B902772F
:10171000FFF7F2FF022363772379E3B92368134AC3
:101720005A619A6822F018029A6062792368D2B9E5
:101730004FF0FF321A619A68616922F060020A4331
:101740009A609A68A16922F080020A439A60012394
:1017500063770020D6E7D4E90212204600F02CF887
:101760000028E2D0CDE72269E4E700BFB71DC1043D
:10177000F8B5022646770668B76847F00107B760F4
:10178000076A022F044614D0032F05D0012F0DD075
:10179000002001236377F8BD01EB8205A94201D146
:1017A0003068F6E751F8043B3360F7E7FFF75DFF79
:1017B000EFE7FFF78AFFECE710B51F23013B1CD3CF
:1017C00021FA03F4E407F9D5102A12D004D83AB16B
:1017D000082A10D001200BE0182AFBD1062BF9D8DB
:1017E00000684161836823F018031A438260002077
:1017F00010BD072BF3E70F2BF1E7002AEAD1EFE743
:1018000090F82530022B06D00423C363002380F810
:101810002430012070470368816C1A6822F00E02A0
:101820001A600A6822F480720A601A6822F00102C3
:101830001A60D0E9101303F01C02012393404B609F
:10184000D0E913325A60436D33B11A6822F48072C2
:101850001A60D0E916325A60012380F8253000233F
:1018600080F8243018467047094A536943F48023AE
:1018700010B55361EFF3108272B60023CC58C450F8
:101880000433B3F5007FF9D182F3108810BD00BF97
:1018900000200240064B5A69002ABFBF054A9A60E1
:1018A00002F188329A60BABF5869C00F00207047B1
:1018B0000020024023016745034A536943F0004377
:1018C00053610020704700BF0020024070B50546FC
:1018D00001F058FD104C06462369DB030AD4206949
:1018E0000E4A02400FD00E494B6813434B60012053
:1018F000226170BD6A1CEFD001F044FD801BA8423C
:10190000EAD30320F5E7206910F00100F1D00123AC
:1019100023611046EDE700BF00200240FAC3020039
:10192000000400202DE9F843254C99462378012B2B
:1019300006460F46904641D001234CF250302370AA
:10194000FFF7C4FF054630BB60601E48026812F412
:10195000806217BF0368227723F4806303601CBF93
:1019600002232377E6B9436943F001034361C7F8D3
:101970000080BFF36F8F0126C7F804904CF25030FF
:10198000FFF7A4FF054626B10E4A536923EA06066F
:10199000566100F05BF8002323702846BDE8F88309
:1019A000731E012B01D90026E8E741463846FFF7B0
:1019B0005BFF022EF7D14FF48026DFE70225ECE72C
:1019C00000040020002002400E4B1A6A510212D57A
:1019D000C20742BF5A6942F004025A61830704D524
:1019E000084A536943F400435361064A536943F478
:1019F0008033536170475A6942F4004242F0040256
:101A00005A61F2E7002002400F4B1A6A12F4800F6D
:101A10005A6913D122F400625A615A69C00022F453
:101A2000FF6200F4FF60104358615A6942F00202FD
:101A30005A615A6942F480325A617047C907E9D441
:101A400042F40062E8E700BF002002401348037F31
:101A5000DAB203F0FD03012B0CD1114B196841F4EC
:101A600000611960196821F400611960196841F476
:101A700000711960931E012B0CD8094B1A6842F4AF
:101A800080521A601A6822F480521A601A6842F46E
:101A900080621A6000230377704700BF00040020B3
:101AA000002002402DE9F047354D2B78012B0646EA
:101AB000884662D001274CF250302F70FFF706FFA6
:101AC000044640BB2F4B68601A6812F4007F1A6806
:101AD00026D022F400721A601A68510506D51A68D9
:101AE00022F480621A6003232B7700E02F7733689B
:101AF000012B1FD17068FFF767FF4CF25030FFF7E2
:101B0000E5FE204A536923F4004323F0040304460E
:101B10005361FFF79BFF00232B702046BDE8F08741
:101B2000520505D51A6822F480621A600223DBE7A9
:101B30002877DCE74FF0FF33C8F80030B768DFF8EC
:101B40004490DFF844A0D6E902321344BB42E0D906
:101B500071683846FFF758FF4CF25030FFF7B6FE79
:101B6000D9F8143003EA0A03C9F8143018B1C8F8D8
:101B700000700446CDE70137E5E70224CDE700BF5A
:101B8000000400200020024005F8FFFF2DE9F0438B
:101B90000468236823F04053236083682BB92368CB
:101BA0004A6823F08003134323600B68022BD1E9BA
:101BB00012370CBF04F5C07204F5807243EA0703C4
:101BC0001360CB6A03BF04F5C47604F5C87504F549
:101BD000D07C04F584761CBF04F5887504F5907CF0
:101BE0006BB18B6ACCF800304F6BCB6AD2F800C077
:101BF0003B430F6B3B432CF47C173B431360336830
:101C00004F6C23F01F033B433360D1F838E0BEF143
:101C1000000F04D00B6813B9CB6B013B2364CB6876
:101C2000D1F81C90002B67D0D1E904C8B9F1000F9E
:101C300036D0D1E90867BEF1000F15D04EEA030394
:101C400043EA090343EA080343EA0C033B433343F3
:101C50000E6C10683343384E0640334313608B6874
:101C60002B608B69A36430E043EA0903D2F800E0FB
:101C700043EA080343EA0C033B432EF47C5E334300
:101C80002EF03F0E43EA0E031360836AB3F1805FC8
:101C9000E5D14B69082BE2D1136843F00063DDE71F
:101CA000BEF1000F14D010680C6C4EEA030343EA37
:101CB000080343EA0C0320F0706C23432CF03F0C24
:101CC00043EA0C0313608B682B600020BDE8F083AF
:101CD000146843EA080343EA0C0324F03F04234357
:101CE0001360836AB3F1805FEDD14B69082BEAD1B1
:101CF000136843F00063E5E7B9F1000F18D0D1E9AC
:101D000008601568BEF1000F0CD04EEA09030343CA
:101D1000086C3343034325F0706020F47C50034388
:101D200013609EE740EA0903334325F47C50F6E74D
:101D3000082383640120C9E7C0C0FFF02DE9F0410A
:101D4000DDF8188004460E4615461F462268136AC1
:101D5000334214BF01230023AB4201D1002012E023
:101D6000B8F1FF3FF3D001F00DFBC01B404502D896
:101D7000B8F1000FEAD14FF400736364A36C43F031
:101D80000103A3640120BDE8F0817FB50446164637
:101D90000D4601F0F7FA626C022A034607D1E268A9
:101DA000B2F1806F08D11023A36401201EE0142A31
:101DB0001ED12A68022AF6D1009600222021204650
:101DC0000393FFF7BBFF88B9A06429462046FFF7BD
:101DD000DDFE58B9AA6B039B7AB901220096022155
:101DE0002046FFF7ABFF236802225A6204B070BDA1
:101DF000242AD8D12A68012ADDE72B680BB90423ED
:101E000005E0012B636C04D1242BF8D01423636408
:101E1000ECE7142BF3D02423F9E7F0B585B00446A2
:101E20000F46154601F0AEFA03461FB90823A36416
:101E300001202EE0626C042A2DD12668326C676383
:101E40000132E263E26BA263326822F040523260F8
:101E500000950122042120460393FFF76FFFC0B9CC
:101E6000626B039B127886F85020626B01326263CA
:101E7000E26B013AE263E26B002AE9D100950122AC
:101E800002212046FFF75AFF18B922680223536245
:101E9000636405B0F0BD1023C9E7F0B5044685B012
:101EA0000F46164601F06EFA25680346A86CD5F871
:101EB00010C11FB90823A364012034E0626C042A16
:101EC0003BD12A6C67630132E263E26BA26329684B
:101ED000E26821F0405141F08051B2F1806F2960F9
:101EE00023D1A86400960122062120460393FFF720
:101EF00025FFC0B9626B95F850101170626B039B9F
:101F000001326263E26B013AE263E26B002AE9D1DB
:101F10000096012202212046FFF710FF18B922681F
:101F200002235362636405B0F0BDD5F8002112F4BA
:101F3000E06FD6D1C5F810C1D4E71023BBE730B5A8
:101F4000044685B001F01EFA626C12F00C0F0346D5
:101F500035D021680A6812F004022BD00A68039079
:101F600022F00402206C0A60FFF74AFC039B08B1D0
:101F70000422A2642268116A89061DD511680393A0
:101F800041F002011160E26C009202210122204620
:101F9000FFF7D4FE039B58B9226802255562E26C14
:101FA0000092202102462046FFF7C8FE00B9656472
:101FB00005B030BD1046DDE702236364F8E7102367
:101FC000A3640120F4E710B50321044601F01EFAD2
:101FD000E3681B1A5842584110BD0000F8B504468A
:101FE0000D46FFF7F0FF30B9104B04221A700F4B6B
:101FF0001B782B70F8BD0E4E234604F110071868AD
:102000005968324603C20833BB421646F7D123460D
:10201000084C18685968224603C20833BB4214466C
:10202000F7D1024B01201870E1E700BF54120020E5
:10203000B0140020C01400202DE9F041154D0026F9
:1020400080462E7001F0D2F90128044606D02B7884
:1020500088F8003034462046BDE8F0810E4E304608
:10206000FFF7B1FF98B906F110073846FFF7ABFF4D
:1020700030B904232B7004462B7888F80030EAE747
:1020800097E80F0086E80F0002232B70F4E72C700E
:10209000F2E700BF54120020B01400207FB50A4BB5
:1020A000187868B10023032102A8CDE90233049314
:1020B00001F0ACF90DF10701059002A8FFF78EFFC2
:1020C00007B05DF804FB00BF5412002070B50D4648
:1020D000044650B1D9B10F48FFF775FF30B90E4B28
:1020E00004221A700C4B1B782B7070BD094E2346CE
:1020F00006F11004324603CAA2421860596016461F
:1021000003F10803F6D1044B01201870EAE70846F2
:10211000EBE700BFB01400205412002010B109B149
:10212000FFF75CBF0020704734282DE9FF410D46C2
:1021300042D9982800F2B0807F2805D82C78002C4E
:1021400040F04A8301235DE280381828F6D801A3C5
:1021500053F820F089250008C92500083D21000812
:102160003D2100083D2100083D2100083D210008D7
:102170003D2100083D2100083D2100083D210008C7
:102180003D2100083D2100083D2100083D210008B7
:102190003D210008612600083526000809260008B0
:1021A000752600088726000897260008A92600083B
:1021B000B9260008CB2600083428BFD801A353F85D
:1021C00020F000BFAF2200080F2300083D230008C5
:1021D00097230008D5230008012400085B24000889
:1021E00099240008C52400081F2500083D21000887
:1021F0003D2100083D2100083D2100083D21000847
:102200003D2100085D2500083D2100083D21000812
:102210003D2100083D2100083D2100083D21000826
:102220003D2100083D2100083D2100083D21000816
:102230003D2100083D2100083D2100083D21000806
:102240003D210008EF260008152700083F27000859
:102250003D2100083D2100083D2100083D210008E6
:102260003D2100083D2100083D2100083D210008D6
:102270003D2100083D2100083D2100083D210008C6
:102280003D2100086927000893270008C12700089E
:10229000C9270008D1270008B0F5807F00F01D8213
:1022A00040F2011398427FF449AF012429E0C54B65
:1022B0001B78012B3FF442AF022314680B7001F02E
:1022C00081F800283FF43AAF204601F055F8FEF7B8
:1022D000D5FC0DF10F00FFF7AFFE0128044614D026
:1022E000FFF7DCFE012804460CBF042303232B70F8
:1022F000FEF77EFD012801D007232B70002C3FF450
:102300001DAF204604B0BDE8F0810023EFE714685C
:1023100001F058F800283FF411AF8021204601F069
:102320008FF800283FF40AAFA64B1B78012B3FF42F
:1023300005AF2046FEF774FD0446DFE75468002C25
:102340007FF7FCAE166821463046D2E9027801F0EC
:1023500077F800283FF4F2AE0421404601F070F80F
:1023600000283FF4EBAE2146384601F069F800281A
:102370003FF4E4AE01F026F800283FF4DFAE914BC5
:102380001B78012B3FF4DAAE43463A4621463046ED
:10239000FEF760FDD0E7D2E900460421304601F0A7
:1023A0004FF800283FF4CAAE1021204601F048F84B
:1023B00000283FF4C3AE01F005F800283FF4BEAE9C
:1023C000804B1B78012B3FF4B9AE31462046FEF717
:1023D00059FDB1E7146800F0F5FF00283FF4AEAEF8
:1023E0008021204601F02CF800283FF4A7AE754B61
:1023F0001B78012B3FF4A2AE2046FEF761FD9BE760
:10240000D2E90064D2E9027800F0DCFF00283FF452
:1024100095AE002C7FF792AE2146304601F010F8C1
:1024200000283FF48BAE0421404601F009F8002853
:102430003FF484AE2146384601F002F800283FF40C
:102440007DAE604B1B78012B3FF478AE43463A4695
:1024500021463046FEF750FD6EE7D2E9004600F017
:10246000B1FF00283FF46AAE0421304600F0E8FFD7
:1024700000283FF463AE1021204600F0E1FF002861
:102480003FF45CAE4F4B1B78012B3FF457AE314607
:102490002046FEF74BFD4FE7146800F093FF00283D
:1024A0003FF44CAE8021204600F0CAFF00283FF4E4
:1024B00045AE444B1B78012B3FF440AE2046FEF75F
:1024C00053FD39E7D2E90064D2E9027800F07AFFDF
:1024D00000283FF433AE002C7FF730AE2146304663
:1024E00000F0AEFF00283FF429AE0421404600F082
:1024F000A7FF00283FF422AE2146384600F0A0FF97
:1025000000283FF41BAE2F4B1B78012B3FF416AE77
:1025100043463A4621463046FEF738FD0CE7D2E9FD
:10252000004600F04FFF00283FF408AE042130467B
:1025300000F086FF00283FF401AE1021204600F095
:102540007FFF00283FF4FAAD1E4B1B78012B3FF4B0
:10255000F5AD31462046FEF725FDEDE6146800F0A6
:1025600031FF00283FF4EAAD8021204600F068FFEB
:1025700000283FF4E3AD134B1B78012B3FF4DEAD95
:102580002046FEF71BFDD7E60E4B1B78012B3FF4D0
:10259000D5AD146800F016FF00283FF4CFAD102130
:1025A000204600F04DFF00283FF4C8AD0DF10F01AB
:1025B0002046FFF78BFD0128044622D003232B7011
:1025C000BCE500BF55120020844B1B78012B3FF463
:1025D000B5AD146800F0F6FE00283FF4AFAD102151
:1025E000204600F02DFF00283FF4A8AD032120462F
:1025F00000F00CFF0DF10F01E0602046FFF78EFDAB
:10260000D9E700232B707CE6744B1B78012B3FF439
:1026100095ADD2E90046926801921146204600F03D
:102620000FFF019A00283FF489AD31462046FEF79E
:1026300095FB81E6694B1B78012B3FF47FADD2E916
:102640000064926801921146204600F0F9FE019A5A
:1026500000283FF473AD21463046FEF75FFB6BE682
:102660005E4B1B78012B3FF469ADD2E90001FEF708
:102670000BFB61E6594B1B78012B3FF45FAD1068F3
:10268000FEF7C8FA58E6554B1B78012B3FF456ADC0
:10269000FEF7D6FA50E6514B1B78012B3FF44EADB6
:1026A0001068FEF779FA47E64C4B1B78012B3FF494
:1026B00045ADFEF785FA3FE6484B1B78012B3FF40A
:1026C0003DAD1068FEF784FA36E6444B1B78012BCB
:1026D0003FF434ADFEF794FA2EE6404C2378012BFC
:1026E0003FF42CAD00F0D0FE01202070DDE5146831
:1026F0002821204600F092FE00283FF41FAD28213B
:10270000204600F0AFFE01283FF418AD204600F04F
:10271000F1FD11E6D2E900412046019100F07EFE74
:10272000019900283FF40AAD204600F09BFE0128E5
:102730003FF404AD0199204600F0FEFDFCE5D2E92E
:1027400000412046019100F069FE019900283FF404
:10275000F5AC204600F086FE01283FF4EFAC01996D
:10276000204600F0F7FDE7E5D2E9006408212046A5
:1027700000F054FE00283FF4E1AC0821204600F0B0
:1027800071FE01283FF4DAAC2146304600F0C2FB6E
:10279000D2E5D2E9007496682046314600F03EFE4C
:1027A00000283FF4CBAC3146204600F05BFE012808
:1027B0003FF4C4AC32462146384600F0DFFBBBE5AF
:1027C000106800F04FFDB7E5106800F079FDB3E543
:1027D000106800F063FDAFE5002492E5551200207B
:1027E000074B0022C3E90122C3E906221A80DA60FE
:1027F00083F823201A84A3F8242183F82621704724
:102800005812002012B9016000687047022A04BF04
:1028100083680360F8E70068704700000A4B1A7885
:10282000032A0AD85AB10122C270DA6942609A6951
:10283000826093F8223083707047042A01D000220E
:10284000F2E70222F0E700BF5812002008B5044B5F
:1028500083F8221018B1FFF7E1FF0123437008BD90
:102860005812002008B50B4B1A78023A022A0CD8ED
:10287000D9685868802988BF8021FEF705FA0128A9
:1028800003D0FFF7ADFF002008BDFFF7A9FF01202F
:10289000FAE700BF5812002038B5D3E9003502FB33
:1028A00001F422460146E818FEF738FA012805BF70
:1028B000044A53694FF0FF341B1908BF5361204687
:1028C00038BD00BF5812002010B502FB01F4D3E957
:1028D000003122461944FEF741FA01280CBF204678
:1028E0004FF0FF3010BDF8B51C460546836B0E4611
:1028F0001746D4E904010022984723696D6B3A46D4
:1029000001213046A847636918446061F8BD2DE98C
:10291000F0415569002D07460E46144629DB5368E1
:102920009268B5FBF3F890451AD0511C10D0534370
:102930006361E268216823463046FFF7D4FF326CBA
:1029400032B16423706C6B4393FBF0F0C0B29047DC
:1029500062682068002103F0D5FE6368C4E9028341
:102960006268B5FBF2F302FB135322680135D754BA
:102970006561BDE8F0810000044B10B5012483F8C7
:10298000224010B1FFF74AFF047010BD581200201A
:102990004FF0FF3383600362826200230122C0E9AB
:1029A0001733C0E914334361C3620161A0F85830A2
:1029B00003648264A0F84C3018467047A239042999
:1029C00016D8DFE801F0120F0A0803000B2380F885
:1029D0004C30002070470723F9E740F60203A0F8C7
:1029E0004C30F6E740F60213F9E740F60223F6E72B
:1029F0004FF0FF307047026A73B5C56AC169B5FB15
:102A0000F1F69642044600F1180301FB165509D071
:102A1000561C07D05143C162426A81690193FFF796
:102A200062FF019BD4E907124A43E262A1692A4688
:102A30002046FFF758FF236C0BB164209847002312
:102A4000A36402B070BD2DE9F04F836C85B0012BFB
:102A500004460E460392029300F02E814FF0FF359C
:102A6000284605B0BDE8F08F0C2B19D8DFE813F02D
:102A70000D0024002D003E0056006C007400CC00B8
:102A8000130189001E01CC00E400725DA72A05F144
:102A90000103E3D1029A84F84C201D4694F84C308F
:102AA000039AAA42E0DC092B02D1236D002B68DCDB
:102AB000E36D2B44E365D3E7715D2046FFF77EFFAE
:102AC0006A1C051ECCDB1546E8E7735DFB2B05F1A0
:102AD000010207D80133DBB2236594F84D3084F846
:102AE0004C30F0E7C4E914330323F8E7626D735DFB
:102AF000FC2A05F101010BD1226DC4F85480013389
:102B00001344236594F84D3084F84C300D46C5E7E6
:102B100084F85830042384F84C30F7E7616D735D16
:102B2000FD2905F101020BD194F85810C4F8548026
:102B300003EB0123236594F84D3084F84C30C2E751
:102B400084F859300523CAE7735D84F85A300623A8
:102B500084F84C300135A1E794F8593094F85820A6
:102B60001B0403EB026394F85A2003EB0223725D0B
:102B7000C4F854801344236594F84D3084F84C30E5
:102B8000E8E7236D002B0CDD63690193002B0FDA5E
:102B90004FF0FF304A462146FFF7B9FE236D013B57
:102BA0002365236D002B7FF479AFA4F84C3075E7D3
:102BB000019BD4F804A0B3FBFAFBA3689B4513D098
:102BC000236820690BFB0AF11F466161A36B002299
:102BD0009847236938465246276B0121B8476369F5
:102BE000C4E902B00344636162680199019BB3FBCD
:102BF000F2F302FB1313E2689342C9D22268D05C5D
:102C00000B4601336361C5E7705DA72805F1010735
:102C10000CD04A462146FFF77AFE94F84C300B2B35
:102C200002D16369013363613D4637E784F84D3073
:102C30000C2384F84C30F7E76F1C755DA72D0ED17F
:102C40004A4621462846FFF762FE94F84D200B2A9B
:102C500002D163690133636184F84C20E4E7A5F194
:102C6000A203042B06D829462046FFF7A7FE051E1F
:102C7000DADAF5E64A462146A720FFF748FE4A463B
:102C800021462846FFF743FE94F84D200B2AE3D156
:102C900063690233DFE7226D002A04DD63691344B0
:102CA0006361C4F85080A4F84C80F7E6226D002AD6
:102CB000F9DD63699B1AF3E7002500F11809A846BE
:102CC000ECE600002DE9F04F8C4C94F826810223AD
:102CD000A5B007460D4616462370B8F1000F40F028
:102CE0009880E269A3689A4207D29B1A8B4228BF58
:102CF0000B461A44E261CD1A1F44002D4BD0E06907
:102D000063682A4639461844FEF708F8012840F05F
:102D100089806369E1692B4429446361E1613AE098
:102D2000B4F8240108B90F2D2CD8C0F11002AA4222
:102D300028BF2A4607EB08014844019203F0D4FC5F
:102D4000019AB4F8243113449BB2102BA4F8243117
:102D5000A5EB0205904413D10023A4F82431484682
:102D600003AB04AA1021CDF80CA0FEF7C5F801288A
:102D70003BD015213046FFF769FD4FF0000855E0C4
:102D80000F2D06D907EB0800103D08F110080028A8
:102D9000E6D1002DC4D1D4E906329A42C0F0AB800E
:102DA00094F8263113B15648FFF725FE03236168D6
:102DB000544823700027802284F82370FDF7CEFF4B
:102DC000012840F082804F48FEF7CEF801287CD1E0
:102DD000FDF7F6FE4B48FDF71DFF012805465DD1C6
:102DE000DFF824A14FF0800941E0D4E906329A1AB5
:102DF000102AA8BF102204A958460192FFF723FE0B
:102E00000028019A01DA1421B4E7E3691A44E26167
:102E1000BFE74FF000084FF0100A04F5A07B04F163
:102E20002409B6E70B213046FFF710FD404625B0D8
:102E3000BDE8F08FD4E90112A3EB0708B8F1800FC9
:102E400028BF4FF0800811443944424604A8CDF809
:102E50000C90FDF783FF0128054606D103AB5246CF
:102E6000414604A8FEF792F8054665B3803723690A
:102E7000BB42DFD8012D11D180232348039303A93E
:102E8000FEF790F80128054608D11F492022A1F13C
:102E9000640003F019FC08B984F82350FDF7D0FE54
:102EA000012D12D194F82380B8F1000F21D0228C8B
:102EB0004FF6FF739A4219D01248FDF767FF0128B9
:102EC00005D0162156E7FDF7BBFE0F2152E7238CF4
:102ED00063B9BFF34F8F0D490D4BCA6802F4E0622E
:102EE0001343CB60BFF34F8F00BFFDE70423237074
:102EF0009CE70E213EE74FF0010897E758120020AB
:102F0000981300207C120020FC12002000ED00E04D
:102F10000400FA0570B505460C4631B90221284671
:102F2000FFF794FC0024204670BD0B78012B01D9DB
:102F30000221F5E74B88023B9BB24FF6FC729342AD
:102F4000ECD9FFF78FFC0C4B0022012683F82220DE
:102F50001E7022785A7062881A84FDF78FFE04462C
:102F600020B917212846FFF771FCDCE72846FFF758
:102F700003FD3446D7E700BF581200202DE9F74F74
:102F800005461746009121B90221FFF75FFC002496
:102F900004E03AB92846FFF7EFFC0124204603B0CD
:102FA000BDE8F08FDFF8B88298F80020012A04D03D
:102FB000022A00F02F8111214BE0D8F81CB0BBF1A0
:102FC000000F01D01221E0E7B8F8240108B9FF2F63
:102FD00020D8C0F5807ABA45934C009928BFBA46EC
:102FE0005246204403F080FBB8F82421A7EB0A03E3
:102FF0005244A8F824210193B8F82421B2F5807F27
:103000000CD0002AC6D1009E00F0DCF940B9FFF7D1
:1030100029FCBCE7CDF804B0DA46EDE7824EF3E7D1
:103020003046FDF7CBFF012811D1002288F8262178
:103030007288D30610D4B1467C4C2046FDF7BEFF03
:1030400001280ED098F8262182B1042100E0032146
:103050002846FFF7FBFBDAE788F8260106F180092E
:10306000EAE798F82621D4F814B0E2B9D9F8142088
:103070005A451BD3D2B1012288F801204FF40072C7
:103080006B49C8F808206B4AC8F80410A2EB010B82
:10309000A2F50072521AD9F81810C8F80CB0914273
:1030A0001DD90721D4E772695A4501D00C21CFE719
:1030B00004F11C00202206F11C0103F005FB04466C
:1030C00008B10621C4E74846FDF778FF0128CDD0B6
:1030D00005212846FFF7BAFBFFF7C4FB5EE700F0C7
:1030E00071F908B91021B3E798F826215AB1304692
:1030F000FDF7E6FE0028F5D04C48FDF74DFD0446EF
:1031000008B91821E5E7D8F80C10D8F80400FDF745
:10311000BBFD012801D00A219AE7D8F804008022DB
:103120004946FDF7FBFD012801D00B2190E798F8F7
:103130002611002953D04846FDF78AFD044608B9F8
:103140001921C6E75C2200213B4803F0DBFA3B482B
:103150003B4BC8F8400140228118C8E95612C8F814
:103160004421384AC8F87021374A3049C8F87421D8
:10317000364AC8F87821364AC8F87C2101F5007231
:10318000C8F82C21334AC8F83CB11A44521A3249C3
:10319000521AC8F83021314A0024C8E94D42A0F142
:1031A0007C01A0F170026438C8F82841FFF7F0FBF9
:1031B000B269C8E90624D9F81820C8E90424019B9B
:1031C00000229342A8F8242117DD00982A461946C8
:1031D0005044FFF777FD00287FF4DCAE17E7B269B3
:1031E00002F50072C8F818204FF48072C8F81C204D
:1031F000D9F81820C8E90421E1E7B7F5807F05D99F
:103200002A46A7F5807106F58070E2E7022288F869
:103210000020BFE600F0D6F800283FF4F8AE009892
:103220002A463946D5E700BF7C120020005001082D
:103230000000409000B09E90A0130020FC130020DE
:1032400001002008C928000899280008052800085E
:1032500017280008FFFF3F900000009000024090F8
:103260005812002038B50546FDF7EAFC09490A481E
:103270008022FDF773FD0128044603D10648FDF7BF
:1032800085FD04461CB916212846FFF7DFFA2046C3
:1032900038BD00BF000040907C12002010B50446ED
:1032A00018B1FFF7BBFA01238370FFF7DBFA18B9F7
:1032B00024B10A23A37010BD0120FCE72046FAE7E1
:1032C00008B5014638B1FFF7A9FA094A92F8233048
:1032D00013B10120087008BD92F82200012802D91C
:1032E00001204870F7E701D18B70F4E70120F2E785
:1032F0005812002070B50446A0B0C8B10D49802214
:103300006846FDF72BFD034678B1059A2260069AC0
:10331000626007AD08340FAE2A4603CAB24220608D
:103320006160154604F10804F6D1184620B070BD5E
:103330000346FAE70050010808B50A4630B17E2975
:1033400004D8034903F0D0F9012008BD0020FCE7B0
:103350008003000838B5054640B141B14C1E2246F5
:10336000044903F0D7F900232B55012038BD084646
:10337000FCE700BF5A680008014B1860704700BFA7
:103380007C1400200E4A4FF0E02010B5D2E9013441
:1033900081698B4238BF4069234438BF1B185B1AD0
:1033A000106893604FF47A74B0FBF4F0984204D242
:1033B000D368002001339060D360D068516010BDA5
:1033C0007C1400200748084A08B50023C0E90533EB
:1033D0008380032302600362FEF790F9B0FA80F065
:1033E000400908BD8C14002000300240064B9A6C46
:1033F00042F480529A649B6C82B003F48053019330
:10340000019B02B0FFF7DEBF001002400A460146F2
:103410000148FEF7ADB900BF8C14002051B1064B36
:1034200001390144994205D80449884234BF00203B
:103430000120704700207047FFFF0920001700207F
:1034400051B1064B01390144994205D804498842DB
:1034500034BF00200120704700207047FFFF092083
:103460000017002051B1064B01390144994205D89B
:103470000449884234BF0020012070470020704773
:10348000FF160020000000207047FEF701B8FEF78D
:1034900011B8FEF74DB8FEF7A3B810B5044686B0D4
:1034A00030B101A8FEF7D0F8029B236006B010BD32
:1034B0000120FBE738B50446FFF764FF631C0546AF
:1034C00018BF0134FFF75EFF431BA342FAD338BD98
:1034D00070B592100023934205DA50F8234041F86A
:1034E00023400133F7E7062A2ED0082A5CD0042AAD
:1034F00040F0A38000225148CB6815580868DCB220
:1035000045404F48065D1C0E0432045D44EA062423
:10351000C3F30746282A865D44EA0664C3F30726F8
:10352000805D44EA004485EA04004C68086180EA52
:1035300004008C68486180EA040080EA0303886123
:10354000CB617AD01031D6E700223C4B486901327A
:1035500003EB8203C5B253F8044C0B685C40384B54
:103560005E5D050E5D5D45EA0625C0F30746C0F3C6
:1035700007209E5D185C45EA066545EA004084EA3E
:1035800000038B6101200B465D689C69032885EA76
:103590000404DC6101D1072A4FDC0130062803F165
:1035A0000403F1D11831D0E70024244BCA69E5584F
:1035B0000B68D0B25D40224B1E5C100E0434185CC8
:1035C00040EA0620C2F307461C2C9E5D40EA0660D6
:1035D000C2F307269E5D40EA064085EA00004D687A
:1035E000086280EA05008D68486280EA0500CD68BF
:1035F000886280EA0500C8621FD0050E20315E5D3A
:10360000C5B25D5D45EA0665C0F30746C0F3072015
:103610009E5D1B5C51F8100C45EA064545EA032304
:10362000434051F80C0C0B61434051F8080C4B61BE
:1036300043405A408B61CA61B7E770BD64680008B7
:103640008C7200082DE9F04FC5B0002303930B687E
:103650001BBA04934B681BBA05938B681BBA06937D
:10366000CB681BBA07930B691BBA08934B691BBA4B
:1036700009938B691BBA0A93CB691BBA0B930B6A2C
:103680001BBA0C934B6A1BBA0D938B6A1BBA0E9331
:10369000CB6A1BBA0F930B6B1BBA10934B6B1BBA05
:1036A00011938B6B1BBA1293CB6B1BBA139342AE65
:1036B00012AB196853F8385C53F8144C53F8342C97
:1036C0002C448D0A85EA714585EAF141D70853F803
:1036D000105C214487EAF2175C6887EAB2473944F4
:1036E0002A44A50A996085EA744553F8301C85EA96
:1036F000F4442244CC0884EAF11484EAB141114430
:10370000D9600833B342D4D1664E03680269446875
:103710004169D0F808A08569D0F80C80D0F81C90D9
:1037200001273760366803965F4E37680397039F1B
:10373000013727D1039F376036680396039E002E1A
:1037400038D00368594E594FC1698569C268D0F8AD
:103750001490D0F808B0D0F804C05E400369066049
:103760005F4082EA050487EA01038BEA090A0761E0
:1037700087EA0C0872408BEA01018CEA050586EAAB
:10378000090917E0494F494E5F40564088EA050C49
:103790008AEA010B89EA0A0A86EA090387EA08022B
:1037A000654087EA010986EA040851460760066118
:1037B000DA4664464FF0000C0CF11007DFF8F0B069
:1037C0006E46BE595CF80B7037444FEAB21686EA73
:1037D000F22686EA7266374485EA010616406E4094
:1037E0003E44B14444EA030606EA0A0604EA030733
:1037F0003E434FEAB30787EA733787EAB3573E443D
:1038000004AFE3446744DBF804B07F68C844BB44BA
:1038100081EA020708EA07075D444F403D444FEA4A
:10382000B8174E4487EAF82787EA786746EA030B19
:103830003D440BEA040B06EA03074BEA070B4FEA89
:10384000B60787EA763787EAB6570CF1080CBB440F
:10385000BCF5807FAA44AB4408D089461546414652
:103860005246A0469A4634465B46A5E74568076837
:103870002E44856846602B448360C3681C440369FA
:10388000C4605344036143694344436183691A44F8
:10389000C36982615F4419440760C16145B0BDE8F6
:1038A000F08F00BF0830024000300240F0F0A5A5C4
:1038B0008C6C000830B500239510AB4206DA50F846
:1038C000234024BA41F823400133F6E70846BDE817
:1038D0003040FFF7FDBD00002DE9F74FDB1003F18D
:1038E000030900230193A54B01241C601B6801936D
:1038F000A34B1C680194019C01348B4617D1019C99
:103900001C601B680193019E146803685768456832
:1039100056B984EA030C83689468C0685C40D36835
:103920006F4083EA00080BE087EA050C05E0546865
:10393000436884EA030C136804685C40A046274689
:10394000904B4FEA1C605FFA88F553F820601069CD
:10395000704053F82560C7F3074580EA366053F896
:10396000256080EA3626C4F307205FFA87FA53F809
:10397000200053F82AA086EA3046380EC7F30727FE
:1039800053F82050506968405FFA8CF509F1FF390F
:1039900053F8255080EA3560C4F30745B9F1000FAC
:1039A00053F8255080EA3520C8F3072502F120029C
:1039B00053F8255080EA35404FEA1465E4B253F8D5
:1039C000251052F8085C53F8244081EA050181EA89
:1039D0003A65C8F3074A4FEA186853F82AA052F824
:1039E000041C53F8288085EA3A25CCF3072ACCF347
:1039F000074C88EA010888EA346853F82C4053F8E9
:103A00002AA088EA342853F8274085EA3A4588EA0C
:103A100034484FEA16645BDD53F8247014689168EB
:103A20007C405FFA88F75FFA80FA53F8277053F802
:103A30002AA084EA3764C0F3074753F8277084EA62
:103A4000372CC5F3072453F824408CEA344C040E79
:103A5000C0F3072053F8247054687C40F7B253F841
:103A6000277084EA3764C5F3074753F8277084EA60
:103A70003727C8F3072453F8244087EA34472C0E2D
:103A8000EDB253F8244053F825504C4084EA3A6490
:103A9000C8F3074A4FEA186853F82AA053F8288059
:103AA000D16884EA3A24C6F3072AC6F3074688EAAF
:103AB000010888EA356853F8265053F82AA053F8CD
:103AC000203088EA352884EA3A4488EA334837E7E0
:103AD0002D4B1F5D5FFA88F41C5D44EA0767C0F355
:103AE00007441C5D47EA0447C5F307241C5D47EA09
:103AF000042714687C40CBF80040040E1F5DF4B22C
:103B00001C5D44EA0767C5F307441C5D47EA0447A8
:103B1000C8F307241C5D47EA042754687C40CBF8AF
:103B200004402C0EEDB21F5DC4B2C0F307201C5D33
:103B300044EA0767C8F307444FEA18681C5D47EA80
:103B40000447C6F30724C6F307461C5D47EA04276B
:103B500094687C40CBF8084013F808705C5D9D5D6C
:103B60001B5CD26844EA076444EA054444EA032340
:103B70005340CBF80C3003B0BDE8F08F0830024062
:103B8000003002408C6D00088C720008F8B51546B4
:103B90000C46FFF78FFEEA100332520001259542D2
:103BA0006CDA54F8101F3648364BCEB20135865DBC
:103BB00053F826700E0E865D53F8266086EA376647
:103BC000C1F30747C1F30721C75D415C53F8277074
:103BD00053F8211086EA372686EA31412160616870
:103BE000CEB2865D53F826700E0E865D53F82660C1
:103BF00086EA3766C1F30747C1F30721C75D415C19
:103C000053F8277053F8211086EA372686EA3141A7
:103C10006160A168CEB2865D53F826700E0E865D97
:103C200053F8266086EA3766C1F30747C1F30721D8
:103C3000C75D415C53F8277053F8211086EA372698
:103C400086EA3141A160E168CEB2865D53F8267004
:103C50000E0E865D53F8266086EA3766C1F3074785
:103C6000C1F30721C75D415C53F8277053F8213039
:103C700086EA372686EA3343E36090E7F8BD00BF63
:103C80008C7200088C6800082DE9F0470F46044646
:103C9000114600285ED0002F5CD01AB903F006024E
:103CA000022A57D1626A22F00800102801D0202A87
:103CB0004CD103F0060CBCF1020F03D0206901388F
:103CC0000F2843D82079E16020F00605BCF1020FEF
:103CD000257103D110F0010526D031E00026D4F87B
:103CE00010906661A661E66126624E45F2DA1B4DD0
:103CF00011F806A04FF00408354096FBF8F8002DA7
:103D000004EB880803DA013D65F003050135C5F1D0
:103D10000305ED000AFA05FAD8F8145045EA0A0A34
:103D2000C8F814A00136E0E713F0010FA760384689
:103D300004F1280102D0BCF1060F04D1FFF7BAFD4F
:103D40000020BDE8F087FFF721FFF9E740F61F40AC
:103D5000BDE8F0874FF44260BDE8F08703000080C3
:103D60002DE9F74F00250195A64D01262E602D68FF
:103D70000195A54D2E680196DB10019E03F1030904
:103D80004FEA491301368B4602EB030417D1019E1B
:103D90002E602D680195019ED258676803684568BA
:103DA00056B982EA030C8368A268C0685A40E36887
:103DB0006F4083EA00080BE087EA050C05E06668BF
:103DC0004568D258036886EA050C5A409046174663
:103DD0008E4B203C4FEA1C60FDB253F820602069F6
:103DE000704053F82560C8F3074580EA366053F801
:103DF000256080EA3626C2F307205FFA88FA53F876
:103E0000200053F82AA086EA3046380E09F1FF391F
:103E100053F8205060696840D5B2B9F1000F53F8EB
:103E2000255080EA3560CCF3074553F8255080EAE9
:103E30003520C8F307254FEA186853F8255053F882
:103E4000288080EA35404FEA1265C2F3074253F8F2
:103E50002510A56953F8222081EA050181EA3A6517
:103E6000C7F3074AE16953F82AA085EA3A25CCF35B
:103E7000072A5FFA8CFC88EA010853F82CC053F833
:103E80002AA0C7F3072788EA3C6888EA322853F853
:103E9000272085EA3A4588EA32484FEA16625ADD19
:103EA00053F822702268A1687A40C7B25FFA88FA94
:103EB00053F8277053F82AA082EA3762C8F30747FD
:103EC00053F8277082EA372CC5F3072253F82220D3
:103ED0008CEA324C020E53F8227062687A40EFB2DC
:103EE00053F8277082EA3762C6F3074753F8277002
:103EF00082EA3727C8F307224FEA186853F82220CE
:103F000053F8288087EA32472A0EC5F3074553F84D
:103F1000222053F825504A4082EA3A62C0F3074A09
:103F2000E16853F82AA082EA3A22C6F3072AF6B2D9
:103F3000C0F3072053F8266053F82AA053F8203026
:103F400088EA010888EA366888EA352882EA3A422F
:103F500088EA33483CE72E4B9F5CC2B29A5C42EA47
:103F60000767C8F307429A5C47EA0247C5F307228E
:103F70009A5C47EA022722687A40CBF80020020EBA
:103F80009F5CEAB29A5C42EA0767C6F307429A5C12
:103F900047EA0247C8F307229A5C47EA02276268A9
:103FA0007A40CBF804202A0EC5F307459F5C5D5D7F
:103FB0005FFA88F24FEA18689A5C42EA0767C0F332
:103FC0000742C0F307209A5C47EA0247C6F307227C
:103FD000F6B29A5C47EA0227A2687A40CBF808203A
:103FE00013F808709A5D1B5C42EA076242EA0542D8
:103FF00042EA0323E2685340CBF80C3003B0BDE83B
:10400000F08F00BF08300240003002408C6800088A
:104010008C7100080423FFF737BE2DE9F04F884666
:1040200087B016461F460446002800F0B8800029D5
:1040300000F0B580002B00F0B2801098002800F04E
:10404000AE800F2A40F3AE80237913F0060F40F0C4
:10405000AC8032071DBF43F00403A6F110092371A1
:10406000B14600254D4522DA002308EB0502E11890
:10407000D258496912BA4A4003F1080A6946043322
:10408000102B4AF80120F0D1636A02A804F1140150
:1040900004F12802FFF720FC0023E21851697A1985
:1040A00009BAD1500433102BF7D11035DAE7B542F5
:1040B00003DB10980660002079E0C5EB060B0421B5
:1040C00000239BFBF1F11A468A4215DA08EB050042
:1040D00003F1080AC05890FA80FEE018E9464069EA
:1040E0008EEA000E4AF809E007EB050E00BA4EF81A
:1040F000030001320433E7E721EAE1718B0004EBAE
:10410000030E06A81844DEF8142040F8102CABEB80
:10411000810B03EB050C00225A451EDA06A808EBBA
:104120000C0A00EB81001AF802A001904FEAC209C4
:1041300050F8100CC9F118090AFA09FA8AEA000ABB
:10414000019840F810ACDEF8140007EB0C0A20FAD6
:1041500009F00AF802000132DEE702AA1344013135
:104160000022032902F1040205DC0EEB02000131FA
:1041700040699850F5E7636A02A804F1140104F15C
:104180002802FFF7A9FB0023E21851697A191A44A3
:10419000043309BA102B42F8101CF5D189E74FF40B
:1041A000426004E040F61D4001E040F61E4007B0CA
:1041B000BDE8F08F38B132B1037943F002030371E7
:1041C0000020106070474FF4426070470523FFF7EE
:1041D0005BBD2DE9F04F8DB00DF1200A05468846F4
:1041E00016465046002110221F4602F08BFA002D81
:1041F00000F0F680B8F1000F00F0F280002F00F020
:10420000EF801698002800F0EB800F2E40F3EB8033
:104210002B7913F0060F40F0E98032071DBF43F001
:104220000403A6F120092B71B14600244C4528DA7D
:10423000002308EB040203F1100BD2586946043343
:1042400012BA102B4BF80120F3D16B6A04A8514627
:1042500005F12802FFF784FD0023E9185AF803202E
:1042600048690DF1100C42405CF8030048613919AF
:104270004AF8032012BACA500433102BEDD110347F
:10428000D4E7B44203DB169806600020B0E00023B8
:1042900008EB040903F1100B59F8032069460433B5
:1042A00012BA102B4BF80120F2D105F1280C62460E
:1042B00051466B6ACDF80CC004A8FFF751FD04F11C
:1042C000100CCCEB060E04219EFBF1F100230291B1
:1042D0001A46DDF808A0524518DA09EB030003F18D
:1042E000100A0069694600BA4AF801000DF1200A77
:1042F000013253F80A10484043F80A0090FA80FB54
:10430000381918440433C0F810B0E2E72AEAEA7119
:104310008B000CA8184400229C4440F8202CAEEBE3
:10432000810BCDF804C05A4520DA019840444FEA89
:10433000C20A10F802900DF1300C0CEB810ECAF19C
:10434000180A09FA0AF084465EF8200C8CEA00008C
:104350004EF8200C01985EF810EC38442EFA0AFA58
:104360008AEA090A00F802A00132DCE70CAA1A4422
:104370002BEAEB7E4FF0FF304FEACE0E20FA0EFE16
:1043800052F8100C0EEA000E52F8200C8EEA0000D3
:1043900042F8200C0DF1200804A808EB030E0131AF
:1043A00003440022032902F1040204DC5EF8020047
:1043B00098500131F6E76B6A039A04A84146FFF76B
:1043C000CFFC0023EA18516958F803204A403919F4
:1043D00048F8032012BACA500433102BF2D152E726
:1043E0004FF4426004E040F61D4001E040F61E40FC
:1043F0000DB0BDE8F08F38B132B1037943F002035C
:1044000003710020106070474FF4426070472DE93F
:10441000F8431646C26CF3000446C2F3C5001A44C2
:104420009A420F46E26402D2236D01332365236D65
:1044300003EB5673236533183F2B29D9C0F1400590
:10444000204439460C302A4604F1540804F10C0982
:1044500002F04AF940464946FFF7F4F805F13F03F8
:10446000B34213D279198B0701D040460AE00B46BC
:104470004A46403153F8040B42F8040B8B42F9D101
:1044800040464946FFF7DEF84035E7E7002000E008
:10449000002520447919721B0C30BDE8F84302F066
:1044A00023B938B578B171B1002A0CDB037903F078
:1044B000040303F0FF041BB9FFF7A9FF204638BD32
:1044C00040F6A17038BD40F6A37038BD0C4B436573
:1044D0000C4B83650C4BC3650C4B03660C4B43665E
:1044E0000C4B83660C4BC36603F17453A3F5230393
:1044F000A3F6924303670023C3640365704700BFBC
:1045000067E6096A85AE67BB72F36E3C3AF54FA564
:104510007F520E518C68059BABD9831F08B538B10B
:10452000027922F006020271FFF7D0FF002008BDD9
:1045300040F6A37008BDF7B5002307460E46032BCF
:10454000D4BF4C2148213944DA4302F003024968C0
:10455000D20021FA02F20DF803200133082BEED12C
:10456000FB6C3D6D00241C43E20842EA4572EB08F7
:104570003F24002514401D40002D08BF382C3C442A
:104580004FF0800302F03F02237302F1010214D2C4
:10459000372A4FF0000303DCB91801320B73F7E739
:1045A000FA181DF8031082F844100133082BF7D1D4
:1045B00007F1540007F10C011FE0402A04D0BB189A
:1045C000002119730132F8E707F1540507F10C04D3
:1045D00028462146FFF736F80022B9180132002399
:1045E000382A0B73F9D1FA181DF8031082F8441019
:1045F0000133082BF7D128462146FFF723F8002482
:104600003B195B6D1BBA33510434202CF8D107F1F0
:104610000C000021402202F075F8224607F15400F8
:10462000002102F06FF807F14C000021082202F08F
:1046300069F803B0F0BD70B50D4688B01646044663
:10464000C0B1B9B1B2B18368013B1F2B15D8037952
:1046500043F0040303716946FFF76DFF0023A2686E
:10466000934204DA1DF80320EA540133F7E732607D
:10467000002004E040F6A37001E040F6A27008B00C
:1046800070BDD388F0B54C1C03F10806A4009588D2
:10469000A719AF420DD81568EF18076017683E4498
:1046A000EE5003689971D38808331C44D4800020ED
:1046B000F0BD40F2ED30F0BD03684BB141B1CA88A6
:1046C0009B79083ADB4302EB8303CB800023036032
:1046D000704710B50123827901329342026805D2F6
:1046E000002442F8234001339BB2F4E70123002960
:1046F0008380B3BF49420023C371C371116010BDF1
:1047000083888A799A4270B505D201329A421ED3C3
:1047100041F2B54400E00024C279CA718B800022C6
:104720009A4207DA056855F822600D6845F822605C
:104730000132F5E700228D79D018854205DB0D683E
:10474000002645F820600132F5E7204670BD41F2B1
:10475000B54070BD2DE9F84F1646D0F800901768A7
:104760008B888288D1F80080934234BF9A46924663
:1047700009EB820C0025847905EB020E0134A64575
:104780004FF0000403D24CF825400135F3E708EB65
:10479000830C8D7904EB030E0135AE4504D2002560
:1047A0004CF824500134F4E79A4238BF08463146A9
:1047B000FFF7A6FF4FEA8A0BD44600220020002113
:1047C0005A450FD059F8023058F802400025E41835
:1047D00045F10005241845EB0105BC502846002191
:1047E0000432EDE750EA0103B18804D157F82130D3
:1047F000B3B9BDE8F88FBB580AF1804A01330AF11A
:10480000FF3ABB5007EB8A0353F8042F002AEDD17F
:104810008C45EBD85A6801320CF1010C5A60F3E771
:104820000131B180BDE8F88F8388012B06D1036880
:104830001868D0F1010038BF002070470020704791
:1048400010B50023C37181799AB201318A4203F114
:10485000010304D20168002441F82240F3E7012358
:10486000838010BD90F90700431E5842584170479D
:104870000368186800F0010080F0010070472DE91E
:10488000F041C279CB79934254B232D184888D8879
:10489000AC4220D826D30068096800EB840701EBFE
:1048A000850C01236FF003065E4357F806805CF821
:1048B0000660B04504D1A34202D80133A342F1D926
:1048C0005E1EA6421ED0E41AEB1A50F8240051F8DE
:1048D0002330984206D9002A0CBF02206FF0010055
:1048E000BDE8F081002A0CBF4FF0FF300120BDE889
:1048F000F081012C09D1002B0CBF6FF002000320C6
:10490000BDE8F0810020BDE8F0810320BDE8F08122
:1049100010B50446FFF788FFA0B9A28821685301AB
:1049200002F18042013A51F82200A3F120014FF038
:10493000004202EA0004944206D08B4204D052089E
:10494000013BF6E7012010BD184610BD01F01F0322
:10495000012202FA03F34909026852F821001840C3
:10496000C31A584258417047F8B50C46002A53D034
:1049700008B9002950D1E71C9379BF08BB4248D33E
:10498000002C41D0042194FBF1F1061900258D4241
:10499000136807DA56F804CD9CFA8CFC43F825C05E
:1049A0000135F4E721EAE175AE0092F806C06545ED
:1049B00006DA4FF0000C43F806C001350436F4E780
:1049C00014F0030401D1978013E0067843F82160C6
:1049D00003EB81050121A142F5DA10F801C02E6830
:1049E0004CEA06262E600131F5E7012909D001398C
:1049F0009180918801F18040013853F8200000280F
:104A0000F3D00020D071F8BD1046FFF719FF204603
:104A1000F8BD41F2B540F8BD41F2B840F8BD70B5FF
:104A20000446FFF701FF08B1002070BDA1880846C9
:104A30008A00236850B19D18013855F8046C9D58C0
:104A40006D0045EAD6759D50043AF2E71A685200A7
:104A50001A6053F82130012BE6D1013189B2A279D5
:104A6000A18041F2B543013191428CBF184600202C
:104A700070BDF8B50446FFF7D7FEC8B9A588014652
:104A80006A1E9142236809D288001E180131776896
:104A90001E58760846EAC7761E50F2E753F82210F1
:104AA000012D4FEA510143F8221001D901B9A2802A
:104AB000F8BDF8B5828883790A449A4205460C46C7
:104AC00023DCFFF7B1FE18BB1CB3AE8806F18041B2
:104AD000013921446FF0030C731E89000CFB04FCA8
:104AE0002A6833B15718013B57F80C7057500439F6
:104AF000F6E7116842F82410002142F82310013330
:104B0000A342F9D33444AC80F8BD41F2B540F8BDBE
:104B10000020F8BD2DE9F04399B38488036804F1BF
:104B20008042013AC1F1200C53F822604FEA82081A
:104B300026FA0CF6621E03EB840562B155F8087C78
:104B400027FA0CF955F8047C8F4049EA070745F825
:104B5000047D013AF1E71D6805FA01F119604EB1D3
:104B6000817901348C4208D843445E6084801046C9
:104B7000BDE8F0833046BDE8F08341F2B540BDE8C2
:104B8000F0830846BDE8F0834B1E1E2BF0B520D8FD
:104B900084880022661EB24203680DD295005F1918
:104BA000C1F1200C7F6807FA0CFC5F59CF404CEA3A
:104BB000070701325F51EEE704F18042013A53F8F2
:104BC000225025FA01F143F8221011B9012C18BF27
:104BD0008680F0BD2DE9F04D06460F46F9B1D0F8BC
:104BE00000808188C44600200022002388420BD226
:104BF000DCF8004092469B46E7FB04AB4CF804AB64
:104C00005A4600230130F1E732B1B479481CA04282
:104C100008D8B08048F821200020BDE8F08DFFF7CB
:104C20000FFEF9E741F2B540BDE8F08D2DE9F04304
:104C30008388B1F80480947943452CBF9946C146D6
:104C40000134A14557D884799C4206D304680025D5
:104C500044F8235001339BB2F5E743468C799C42DC
:104C60004FF0000405D30D6845F8234001339BB293
:104C7000F4E7A446002500241FFA8CF308F101068E
:104C8000B3420CF1010C11D2066856F823700E687D
:104C900056F82360BE1B67EB07073619146847EB0D
:104CA000050744F82360FD173C46E5E74B451168CE
:104CB0000DD2066856F823C014EB0C0645F1000728
:104CC00041F8236001333C46FD179BB2EEE734B157
:104CD00003F1804001386FF0010441F82040013BAE
:104CE0009BB251F8230008B9002BF8D1013393800F
:104CF0000020BDE8F08341F2B540BDE8F0832DE926
:104D0000F7430D4602AE1F46002346F8043D817965
:104D1000AB79994238BF1946044690463046013176
:104D20003A46FFF7AEFC00286DD120462946FFF732
:104D3000A6FD0330062857D8DFE800F0322C1C25EA
:104D40002C1C040001992846FFF7DAFC01994FF06A
:104D5000000981F807902046FFF791FD002840D018
:104D6000022804D001303FD12846214634E02046B5
:104D7000294628E0019A20462946FFF7EBFC00224D
:104D8000019BDA7130E0019A20462946FFF7E2FCE8
:104D9000E279F5E720462946019AFFF7DBFC1EE0A1
:104DA00001992046FFF7ACFC01984FF0000980F80C
:104DB00007902946FFF763FD98B102280AD0013019
:104DC00012D128462146019AFFF730FF019B83F854
:104DD000079009E020462946019AFFF727FF0122A4
:104DE000CEE70198FFF72CFD40460021FFF771FC4C
:104DF00041460198FFF784FC394604463046FFF7E8
:104E00005BFC204601E040F2ED3003B0BDE8F083EA
:104E10002DE9F3410C4602AE1F46002346F8043D3F
:104E20008179A379054690463046994238BF1946A4
:104E30003A46FFF726FC002843D1019B01229A80C5
:104E400028462146FFF71BFD033006282AD8DFE855
:104E500000F0211B1814110A040028462146019A6B
:104E6000FFF778FC04E028462146019AFFF7DEFEB2
:104E7000002215E020462946F7E70198FFF7E0FCFD
:104E800010E02046294601E028462146019AFFF716
:104E9000CDFE04E028462146019AFFF75BFC012283
:104EA000019BDA7140460021FFF713FC414601984F
:104EB000FFF726FC394604463046FFF7FDFB204647
:104EC00001E040F2ED3002B0BDE8F0812DE9F3479A
:104ED00001F104090C468179002302310546484658
:104EE00016460193FFF7CDFB0146002840F088806D
:104EF00060682560FFF7EDFBAA88636801329A803D
:104F0000A9881A68012342F821302A684FF01F0847
:104F100010680321022200FB03F70F40974228BFCD
:104F20009B184900B8F101084FEA420281F00101E3
:104F3000F1D15B42A360A97901A801313246FFF7A4
:104F4000A0FB08B1484658E001992846FFF7D8FB76
:104F50000198FFF7DDFC404200F01F0A514601981E
:104F6000FFF7D8FD6068019902463346FFF750FF0E
:104F7000074600283CD1AB88984527D2606803F1EA
:104F80008043013B0268012152F82390FFF791FD15
:104F9000B9F1000F17D001992846FFF7B1FB494638
:104FA0000198FFF717FE51460198FFF7B3FD6068BF
:104FB000019902463346FFF72BFF6368AA881B68F6
:104FC00053F82290E4E708F10108D4E701A831463C
:104FD000FFF772FB60682946FFF751FC002805DDEA
:104FE0006068294602463346FFF712FFE66009E093
:104FF00048463146FFF760FB01A83146FFF75CFBEE
:1050000040F2ED37384602B0BDE8F08708B50346F8
:105010000430D968FFF750FB08BD002208B50260D4
:105020008260426803461AB10430D968FFF744FB36
:1050300008BD2DE9F04F9DB01C460C901CA8002324
:1050400040F8043D23680D92894619680E91A168C5
:1050500018919979D9F8002009920131E2689F8866
:10506000FFF70FFB8046002840F0C9801B9841469F
:10507000FFF72FFB1B9EB9F80430099A356802EB45
:1050800083014046C218BA424FF0000203D241F8F1
:1050900020200130F6E70C9BB3F804E002EB0E0190
:1050A000B94206D20C980068002340F82130013242
:1050B000F4E74FEA870EAEF10403EB18002105EB8D
:1050C0000E0C199300910098B84270D20C9ADDF83A
:1050D00000801368099853F8283008932A680368F9
:1050E00008990E9892464FF0000BE3FB01AB189B1A
:1050F0000AFB03F30F930F990368D0464FF00009A2
:10510000E3FB018900210431714528D000220B9274
:10511000099B6A585858CDF828B09246089ACDF89D
:1051200048904FF0000BE0FB02ABDDE90A230020C2
:105130001AEB020A4BEB030B13900E9B0F9A5B5872
:105140000193DDE91289E3FB02896B18CDE902893D
:1051500018EB0A0849F1000943F8048CD3E700234F
:105160000793CDF818B0DDE906ABDCF80030CDF8D8
:105170004090002011901AEB030ADDE910234BF157
:10518000000B12EB0A0243F100031493DDF80090C8
:10519000149B199915905B4409F101090A60CDF837
:1051A00058B01790CCF80030CDF800908BE77B1CFE
:1051B000B380B288012A08D902F18043013B55F837
:1051C000233013B9013AB280F3E730462168FFF784
:1051D00056FB00281B9808DB21680D9AFFF726FD77
:1051E0000D9900230546CB7103E00D99FFF788FA6E
:1051F00005461BA8E168FFF75FFA284601E040F288
:10520000ED301DB0BDE8F08FF7B502AC00230646C7
:1052100044F8043D0F4615462046B179D268FFF7A1
:1052200030FA80B901980121FFF753FA304601990D
:105230003A462B46FFF7FDFEE96806462046FFF793
:105240003BFA304601E040F2ED3003B0F0BD70B5FE
:10525000049D1E462B461446FFF751FD20B1A3794D
:10526000A28801339A4213D120463146FFF707FB4B
:10527000002805DB2046314622462B46FFF7C8FDB5
:10528000A088A27941F2B54390428CBF1846002015
:1052900070BDF8B5069D1F462B461646FFF7B8FDB4
:1052A000044650B93046FFF7DDFA30B13046394692
:1052B00032462B46FFF723FD04462046F8BD70B565
:1052C00004460D461646FFF7AAFB20462946FFF77F
:1052D000D6FA002806DB2046294622463346FFF749
:1052E00097FD00E00020A188A27941F2B5439142E8
:1052F00088BF184670BD2DE9FF4180461D46104607
:1053000000230F4616460093019302930393FFF781
:10531000AFFA002840F0C6806846B1792A46FFF708
:10532000B0F90446002840F0BF8001A8B1792A46B0
:10533000FFF7A7F90446002840F0AF80B17902A832
:1053400001312A46FFF79DF90446002840F0A1806C
:10535000B17903A801312A46FFF793F904460028E2
:1053600040F0938040460099FFF7CAF904460028B0
:1053700040F0878030460199FFF7C2F904460028C3
:105380007FD102980121FFF7A4F903982146FFF786
:10539000A0F90098FFF748FA00285AD10098FFF7C3
:1053A00067FAE8B10098FFF764FB0298FFF760FA2C
:1053B00040B90298314602462B46FFF7A0FC04464E
:1053C00000285ED10298FFF754FBE7E70198FFF74A
:1053D00050FB0398FFF74CFA40B10398FFF749FBE5
:1053E0000198FFF745FA0028F0D109E0039831460B
:1053F00002462B46FFF783FC04460028EDD040E030
:105400009DE80300FFF73BFA00280BDB9DE8030053
:105410002B460246FFF7FCFC0446002831D10298D7
:10542000039909E00198009902462B46FFF7F0FC2A
:10543000044630BB0398029902462B46FFF7E8FC6E
:10544000A7E70398314602462B46FFF758FC04466F
:10545000B8B90398FFF706FA0028F2D106E0314602
:1054600002462B46FFF7D4FC044650B90398314658
:10547000FFF705FA00280398F1DA3946FFF740F9FB
:10548000044603A82946FFF717F902A82946FFF7A3
:1054900013F901A82946FFF70FF968462946FFF7D7
:1054A0000BF901E041F2B644204604B0BDE8F081BA
:1054B00038B5037B9B0704460D4617D4006849683E
:1054C00002462B46FFF7B5FD88B9606869682B4630
:1054D0000246FFF7AEFDA06869682B460246FFF75B
:1054E000A8FD237B43F00403237338BD002038BD9F
:1054F00038B5037B03F00603042B04460D4614D194
:1055000000682A460146FFF77FFE78B960682A46A0
:105510000146FFF779FEA0682A460146FFF774FEB0
:10552000237B23F00403237338BD002038BD2DE90D
:10553000F04385B01C460DF11008002348F8043DE7
:10554000029323680E4699790746914640460231F8
:10555000E268FFF796F80546002840F008812368C6
:10556000E268997902A80231FFF78BF80546002816
:1055700040F0F98003986FF00201FFF7AAF83B7B37
:105580009B0702D502233373E9E0B868029A04232B
:10559000337301462346FFF74CFD0546002840F0D3
:1055A000DE807968B268B8682346FFF742FDB068CC
:1055B0002168E268FFF783FE0546002840F0CF80AF
:1055C00003982168E3680246FFF799FBD9F8303069
:1055D00003981968FFF753F9002837D1E36800935F
:1055E00038680299039A2368FFF753FE054600289E
:1055F00040F0B580E3680093386802993268236808
:10560000FFF725FE0546002840F0A9803068039981
:10561000029A2346FFF70DFD0546002840F09F80C3
:1056200003990298FFF76CF803982168E268FFF786
:1056300046FE0546002840F092800299E3680093F8
:10564000039823680A46FFF702FE34E002982346D7
:1056500001460246FFF7EDFC054600287FD1D9F848
:10566000303061681868039A2346FFF7E2FC02991C
:1056700003980A462346FFF7DCFC3868039A014684
:105680002346FFF7D6FC0298E3680093039923684A
:105690000246FFF7DCFD2168E2680398FFF70FFE82
:1056A0000298E3680093039923680246FFF7CFFD51
:1056B0000546002853D17868326801462346FFF733
:1056C000B8FC054600284AD12168E2683068FFF737
:1056D000F6FD3068039A23460146FFF7AAFC2168CD
:1056E000E2680398FFF7EBFD2168E2683068FFF796
:1056F000E6FD386896E806002346FFF79AFC054663
:1057000000282CD10298326801462346FFF791FC0D
:105710003068E3680093716823680246FFF7B9FDBB
:105720003068E3680093716823680246FFF7B1FDB3
:105730007068E3680093316823680246FFF7A9FDAB
:10574000716802980A462346FFF773FC7068E368A5
:105750000093039923680246FFF79BFD054602A8C4
:10576000E168FEF7A9FF4046E168FEF7A5FF28467D
:1057700005B0BDE8F0832DE9F0410D460446002850
:1057800000F0D680002900F0D3800369002B00F0E0
:10579000D38041694B1E432B00F2CE800368002B5F
:1057A00000F0CA804368442B00F2C6808369002B56
:1057B00000F0C280C369013B432B00F2BD80286822
:1057C000002800F0B980033189081823AA884B43C8
:1057D00060339A4203D240F2ED30BDE8F081EB88AD
:1057E000184418332063EB800028F4D008302A4690
:1057F000FEF747FF0646002840F092806169206B63
:10580000033189082A46FEF73CFF0646002840F08F
:105810008280236B94E803001A68FFF7A5F8236BD6
:1058200061699A6880462069FFF79EF8E16907463A
:10583000206B03310C3089082A46FEF722FF06460A
:10584000002864D1236BA069DA68E169FFF78CF85E
:1058500047440744A368206B4660066146619BB1DC
:10586000E1684B1E422B0FD80331043089082A46C9
:10587000FEF707FF0646002844D1236BA068E168C5
:105880005A68FFF771F80744236A53B3616A4B1EE5
:10589000422B26D8A36A23B3E36A013B422B20D8CC
:1058A000206B0331103089082A46FEF7EAFE0646CF
:1058B00018BB236B616A1A69206AFFF755F8E16A21
:1058C0000744206B0331143089082A46FEF7D9FEBD
:1058D000236B064660B9A06AE16A5A69FFF744F88B
:1058E0000744002F41F2BF4008BF0020BDE8F0810F
:1058F00003F110002946FEF7DFFE206B2946043035
:10590000FEF7DAFE206B29460C30FEF7D5FE206B41
:105910002946FEF7D1FE206B29460830FEF7CCFE63
:10592000EB88183BEB80002323633046BDE8F08111
:1059300041F25440BDE8F08141F25340BDE8F081AE
:1059400038B50D460446002832D0002930D0006B0F
:10595000002830D00368002B2DD083685BB3FEF79E
:10596000ABFE206B29460830FEF7A6FE206BC3680D
:105970001BB10C302946FEF79FFE206B43681BB11C
:1059800004302946FEF798FE206B03691BB11030E6
:105990002946FEF791FE206B43691BB1143029465E
:1059A000FEF78AFEEB880020183BEB80206338BDB1
:1059B00041F2544038BD41F2534038BD2DE9F04129
:1059C000054614460E4600295CD0002A5AD000280D
:1059D00058D00B6B002B4FD0106800284CD0996822
:1059E000002949D0D3888979978803F1340C4FF086
:1059F0000C0818FB01C18F4241D3184428601033B2
:105A0000D380336B9B689979FEF73BFE00282DD13C
:105A1000336B28689B68043099792246FEF731FE83
:105A200000BB336B28689B68083099792246FEF7E3
:105A300028FE064628688EB900680021FEF749FE58
:105A40002B6800215868FEF744FE2B6801219868F6
:105A5000FEF73FFE2B6801221A7315E00430214641
:105A6000FEF72AFE28682146FEF726FEE388103B53
:105A7000E38000232B6002E041F2534604E040F251
:105A8000ED3601E041F254463046BDE8F08138B5CC
:105A90000D460446B8B1B1B1006888B10830FEF7D0
:105AA0000BFE206829460430FEF706FE20682946D2
:105AB000FEF702FEEB880020103BEB80206038BD33
:105AC00041F2534038BD41F2544038BD70B50D46E7
:105AD00014461946E0B1DAB1002B19DB0668BEB1F5
